:020000040800F2
:10000000980A0020C10100087F3F00087F320008E5
:100010007D3F0008190A0008A545000800000000FF
:1000200000000000000000000000000091410008F6
:100030002D0B000800000000A13F000893410008BC
:10004000DB010008DB010008DB010008DB01000820
:10005000DB010008DB010008DB010008DB01000810
:10006000DB010008DB010008DB010008DB01000800
:10007000DB010008DB010008DB010008DB010008F0
:10008000DB010008DB010008DB010008DB010008E0
:10009000DB010008DB010008DB010008DB010008D0
:1000A000DB010008DB010008DB010008DB010008C0
:1000B000DB010008DB010008DB010008DB010008B0
:1000C000DB010008DB010008DB010008DB010008A0
:1000D000DB010008DB010008DB010008DB01000890
:1000E000DB010008DB010008DB010008DB01000880
:1000F000DB010008DB010008DB010008DB01000870
:10010000DB010008DB010008DB010008DB0100085F
:10011000DB010008DB010008DB010008DB0100084F
:10012000DB010008DB010008DB010008DB0100083F
:10013000DB010008DB010008DB010008DB0100082F
:10014000DB010008DB010008DB010008DB0100081F
:10015000DB010008DB010008DB010008DB0100080F
:10016000DB010008DB010008DB010008DB010008FF
:10017000DB010008DB010008DB01000800000000D3
:10018000DB010008DB010008DB010008DB010008DF
:10019000DB010008DB010008DB010008DB010008CF
:1001A000DB010008DB010008DB010008DFF80CD0F0
:1001B00000F0ACF800480047014E0008980A002003
:1001C0000648804706480047FEE7FEE7FEE7FEE7F1
:1001D000FEE7FEE7FEE7FEE7FEE7FEE74142000836
:1001E000AD0100082DE9F05F0546002092469B46D0
:1001F00088460646814640241BE02846414647463D
:10020000224600F072F853465A46C01A914110D364
:1002100011461846224600F059F82D1A67EB0108DE
:100220004F4622460120002100F050F817EB00094C
:100230004E41201EA4F10104DFDC484631462A4627
:100240004346BDE8F09F40EA01039B0703D009E065
:1002500008C9121F08C0042AFAD203E011F8013BB2
:1002600000F8013B521EF9D27047D2B201E000F80B
:10027000012B491EFBD270470022F6E710B513464A
:100280000A4604461946FFF7F0FF204610BD034614
:1002900011F8012B00F8012B002AF9D118467047FC
:1002A00030B50B46014600202022012409E021FA46
:1002B00002F59D4205D303FA02F5491B04FA02F543
:1002C0002844151EA2F10102F1DC30BD202A04DB16
:1002D000203A00FA02F1002070479140C2F1200359
:1002E00020FA03F3194390407047202A04DB203A98
:1002F00021FA02F00021704721FA02F3D040C2F146
:10030000200291400843194670470000064C074DF3
:1003100006E0E06840F0010394E8070098471034D5
:10032000AC42F6D3FFF746FF80790008A0790008B9
:100330007CB5054600F0DCF8044600F0D3F8024630
:100340000020CDE900050748074B006800EB80015D
:1003500001EBC00103EB81012346C96D00F0D6FC1F
:100360007CBD0000180000206C0100200A4B30B456
:100370001B6803EB4304094B03EB84039B68DD8894
:100380001C689B88DB1DDB08203A13FB02F205FB8F
:10039000024230BC00F0CCBB1800002084020020D8
:1003A000034840688068002800D00047704700007C
:1003B000180000202DE9F0470446002799468A4698
:1003C0001546B846104601E008F1010810F8011B77
:1003D0000029F9D100F086F8254A264E4B461168CF
:1003E000B9F1010F01EB410106EB810189688988B0
:1003F000B0FBF1F002D0022B0BD105E0A0EB08001E
:10040000484304EB500003E0A0EB080000FB014070
:1004100084B2904600F066F80146D8F8000000EB80
:10042000400006EB80008068808807FB101189B2CD
:10043000814213D3012012E051462046FFF796FF78
:10044000D8F800007F1C00EB400006EB8000BFB234
:1004500080686D1C8088204484B2DBE700202A7805
:100460000AB1012100E000210842E5D1BDE8F08792
:10047000180000208402002010B50A46034600F050
:1004800023F8C088BDE81040584381B20323002000
:10049000FFF790BF70B514460D46064600F022F8EF
:1004A000074905FB0060096801EB810202EBC1010D
:1004B000044A02EB8101C96D41F8204070BD000083
:1004C000180000206C01002004480549006800EB7A
:1004D000400001EB80008068704700001800002099
:1004E0008402002001484068806A0047180000200C
:1004F00001484068C06A00471800002070B5214CD0
:100500001F4800252060092060610120A0611D2096
:10051000E0610320206240F20D10606240F243105F
:10052000A06240F21710E06240F24710206384F8A6
:10053000365084F8345004F1E80084F8355008212E
:100540000160C021016104218161C903416201F0A0
:10055000F1FC6560A560E560256100F059F8204672
:1005600001F05CFB0949084848600068804700F0DA
:1005700005F90648083000F0E7F8002070BD0000DB
:10058000006801406C010020440000201800002099
:1005900070B58EB000240E4605460094FFF7A2FF0A
:1005A000CDE90104FFF7A4FF0996CDE90304FF207C
:1005B000CDE905048DF830408DF831408DF832409A
:1005C0004FF4C060079007200890FFF78BFF0A9058
:1005D000FFF78EFF0B902A4669460A4801F0DCFAC5
:1005E000094905EB450001EB8002631E5360074B90
:1005F00093604FF07F4241F82020024801F0F6FA64
:100600000EB070BD6C01002084020020200000208C
:1006100030B5434887B00021026842F08062026032
:10062000006800F0806005903D481438026842F48C
:1006300000020260026802F400020592026842F0C1
:1006400001020260026802F001020592026842F0B3
:1006500002020260026802F002020592026842F0A1
:1006600004020260026802F004020592026842F08D
:1006700008020260026802F008020592026842F075
:1006800020020260026802F020020592026842F035
:1006900040020260006800F04000059041F65800FA
:1006A00000900220CDE9010103900E2004906946DC
:1006B0001C4800F05BFE4FF470601B4C00906946D4
:1006C000204600F053FE4FF49860009069461748AA
:1006D00000F04CFE482000906946154800F046FEA8
:1006E000201500906946134800F040FE4FF40C605E
:1006F000114D00906946284600F038FE0320009016
:10070000092004906946204600F030FE4FF4A050C6
:1007100000906946284600F029FE07B030BD000071
:100720004438024000000240000402400008024039
:10073000000C024000140240001802400149086009
:1007400070470000180000200449054A096801EBC1
:10075000410102EB81018860704700001800002011
:10076000840200200349044A096801EB410142F870
:1007700021007047180000208402002070B51B483B
:1007800019490423016000F13401022207248B601F
:10079000C1E90024C1E903424A618A611021C0E92C
:1007A00003314021416101260024C0E901644FF476
:1007B000C071C0E906149102C0E908148900816281
:1007C000214600F05BF809490848343102F0E9F8A5
:1007D000074D08B12E7000E02C7040F26A5000F016
:1007E00009F8287870BD0000400100A05C030020DB
:1007F000300000202DE9F84F1F4C00250126082766
:100800000095C4E90067C4E9026582464FF6FF79A6
:1008100021464A46A1F1500002F0F8F8012000F00C
:1008200071FC0220C4E90007C4E9026521464A467A
:10083000A1F1500002F0EAF803204FF00408E5604F
:1008400084E8810121464A46A1F1500002F0DEF819
:100850004FF40C700090C4E90260C4E9008721469F
:100860004A46A1F1500002F0D1F85146A4F15000DF
:10087000BDE8F84F02F0B8B8AC03002030B587B03F
:1008800005007DD04D480024016841F00101016060
:1008900000684A4900F0010008390590086840F4F2
:1008A00080000860086800F480000590086840F047
:1008B00002000860086800F002000590086840F037
:1008C00004000860086800F004000590086840F023
:1008D00008000860086800F008000590086840F00B
:1008E00010000860086800F010000590086840F0EB
:1008F00020000860086800F020000590086840F0BB
:10090000400008600868694600F040000590022039
:10091000CDE9024001900C2004906020009028480E
:1009200000F024FD012000906946264800F01EFDDD
:100930004CF2037000906946234800F017FD4FF613
:10094000837000906946214800F010FD4FF63F008B
:10095000009069461E4800F009FD48F233100090EF
:1009600069461C4800F002FD1B498020C1E9014096
:100970008000C8604000086180004861800000E09D
:100980001AE0C1E90604C000C1E908040320C1E976
:100990000A0412480C630860296308468D6300F05E
:1009A0001BFB0D4800F044FB00220F21382001F012
:1009B0008FFA382001F080FA07B030BD3838024095
:1009C0000004024000080240000C024000100240F7
:1009D00000140240001802409C02002010640240F3
:1009E00070B50B4D0B4C0126288069806168822010
:1009F0008847A0F50061113908D1EC600026216814
:100A000082208847E868C16882208847304670BDE8
:100A1000340000207C000020FEE7F0B50468059E4D
:100A2000656C46EA034305F040451D436564036871
:100A3000DA634268B2F5403F02D00068C160F0BDA1
:100A400001F47F4201F47F0C866801F07F4301F4DA
:100A50007F0701F47F45CCB242EA0C02BEB1012E01
:100A600016D001F47F02D20CC1F3C401022E11D0C2
:100A7000032E14D0190F3A0D2D0B23092C0144EA33
:100A8000022242EA01321A4300688263F0BD1A432F
:100A90002243F9E7AB0A5B0143EAC22206E0DB0F1F
:100AA000EC0A640144EA822242EAC3320A43EBE7D9
:100AB00001681823CAB2103AB2FBF3F2054B6FF388
:100AC0000901032A9B5CC36500D9091D816508469D
:100AD000704700005E79000810B5014600208B6960
:100AE0008A6A4FF0C07453B1B3F5005F15D072B18C
:100AF000012A0CD0022A0AD0032A09D104E01AB133
:100B0000012A06D0022A03D1C96AC90100D50120F1
:100B100010BDC96AA142FAD010BD002AF7D0012A3F
:100B2000F2D0022AF3D0032AF3D010BD70470000A0
:100B30002DE9F74FDFF8A4A00026DAF8000000EB5B
:100B40004001274800EB810080688588C788E81D40
:100B5000834620F00700401B00F0FF093AE000BF89
:100B60004FEADB010298012901FB06000BD00229A4
:100B70000BD0017842780904807841EA022141EAE9
:100B8000000800241FE0007801E0008840BA804699
:100B9000F7E7291B49440120491E884010EA080F45
:100BA000DAF8000000EB40010D4802D050F8212097
:100BB00002E000EB8100426800980199204480B275
:100BC000FFF768FC641CAC42E3D30198401C80B280
:100BD000761C0190BE42C3D3BDE8FE8F18000020F2
:100BE00084020020704730B5D1E901231A43D1E9CE
:100BF00003352B431A434B690C681A438B691A431C
:100C0000D1E90735012C496A046807D01A432A4301
:100C10006FF30E040A43224302600AE024F4F8440E
:100C20002B4321430B43416803606FF30E010A43DA
:100C30004260002030BD426942EA4101416100202A
:100C40007047F8B514460546D1E9000210438A689A
:100C50006FF01F03C96803EB421242EA41210843C7
:100C60000090286100F06EFC064609E0601C07D089
:100C700024B100F067FC801BA04201D90320F8BD1D
:100C8000A8698006F2D40020F8BD0000F0B56FF02E
:100C90000F05D1E9003405EB04145B1E23432E013C
:100CA0008C682F0306EB042423434FEA054C0C8A7F
:100CB0008E8ACD68097E4FF07F4E07EB04440CEB23
:100CC00006560EEB0161012A0CD082683F1107EB3A
:100CD00005352B432343334302F070420B43134348
:100CE00083600FE08768084A17402A03A2F5805204
:100CF0003243C5683A43234305F070450B432B4309
:100D00008260C3600020F0BDFF0F0FFF2DE9F843A4
:100D10000E460746DDE90818124815464FF44032E2
:100D200042600022C0E902210F491C46016000F028
:100D300071F8002814D139460A4800F017F8002845
:100D40000ED12B46324641460648009400F02AF95F
:100D5000002805D1BDE8F8430A21024800F09CB8FC
:100D6000BDE8F8831402002000B0024070B500EB2B
:100D7000011290F838301832012B20D0012580F86C
:100D80003850022380F8393054680A2C19D0092CC5
:100D900017D01389167B1B0443EA066323431C4CBC
:100DA000B1B10168CE6926401E43CE610368116867
:100DB000196151680A291ED009291CD020E002209F
:100DC00070BDD368168903F07F4343EA0643E5E725
:100DD0000668716A2140194371620368116899615C
:100DE00051680A2901D009290AD1D168026821F085
:100DF0007F41916204E0D168026821F07F41116275
:100E000080F83950002180F83810084670BD000085
:100E1000F0FFFC0070B5040004D094F83900002500
:100E200010B106E0012070BD84F83850204600F073
:100E30001FF8022084F8390020680168626821F4F4
:100E40004031114301602068416BA26821F0070125
:100E5000114341632068016CE2686FF30D01114397
:100E60000164E563012084F83900002070BD0000B2
:100E700008B500680649884208D10648016841F46F
:100E800000010160006800F40000009008BD00004F
:100E900000B00240303802402DE9F84300260446F5
:100EA000009600680D4600684FF00407C0074FF039
:100EB000030825D000F046FB81461DE04068009005
:100EC00010F0210F0FD00098800603D5E06B40F0A2
:100ED0000200E0630098C00703D0E06B40F001001F
:100EE000E063212032E0681C06D0C5B300F02AFB85
:100EF000A0EB0900A8423CD8206841688907DDD5ED
:100F00002068C169890602D4406A800640D500F095
:100F100019FB814638E04068009010F0290F1FD07F
:100F20000098000703D5E06B40F00400E0630098F0
:100F3000800603D5E06B40F00200E0630098C00734
:100F400003D0E06B40F00100E06329202168886055
:100F500084F8397084F838600120BDE8F88308E02F
:100F6000681C11D02DB100F0EDFAA0EB0900A842E9
:100F70000AD954F83C0F40F0200044F8040984F8E2
:100F8000018026700320E8E720684168C906C2D5C1
:100F9000216812208860012084F8390084F83860C4
:100FA0000020DAE738B50446049894F83850012D4B
:100FB00010D0012584F83850022584F8395000906B
:100FC0002046FFF72AFD2068016841F00101016019
:100FD000002038BD022038BD70B5040025D094F83B
:100FE0003500022820D02068016821F0010101604D
:100FF00020680025056020684560206885602068BD
:10100000C560206805612168212048612046FFF7FE
:101010004FFD94F85C203F2191408160656584F824
:10102000355084F83450002070BD012070BD0000A0
:101030002DE9F041044600F085FA06465CB1002532
:1010400084F83450022084F835002068016821F0CB
:10105000010101600DE00120BDE8F08100F072FAAD
:10106000801B052805D920206065032084F8350001
:10107000F2E720680068C007F0D1226811682048B4
:101080000140D4E901031843D4E90336334318433C
:1010900063691843A3691843E3691843236A184333
:1010A0000843616A042903D1D4E90B1319430843A7
:1010B000106020684069666A20F0070130460E43E0
:1010C000012704280CD1A06A0643E06A40B12046FB
:1010D000FFF702FD20B14020606584F83570BAE763
:1010E000206846612046FFF7E3FC94F85C203F212E
:1010F00091408160656584F835700020ACE70000A0
:101100003F8010F070B5044600F01CFA0546601CE4
:1011100002D004480078044400F014FA401BA042B6
:10112000FAD370BDB00000202DE9F0412B4886B005
:10113000016800294FD14FF00108C0F8008028480D
:101140000024016841F0010101600068022500F0FF
:10115000010005904FF63F00CDE9000502AA0326E5
:101160000C2782E8D00069461E4800F0FFF802AA6A
:10117000694682E8D000CDE900851B4800F0F6F80A
:1011800048F23310CDE9000502AA694682E8D00092
:10119000164800F0EBF84FF68370CDE9000502AA7F
:1011A000694682E8D000124800F0E0F84CF2037083
:1011B000CDE9000502AA694682E8D0000D4800F09A
:1011C000D5F86020CDE9000502AA694682E8D00082
:1011D000094800F0CBF806B0BDE8F081A800002077
:1011E0003838024000140240000802400018024053
:1011F00000100240000C0240000402402DE9F04FB4
:10120000DFF838B100224FF001094FF00F0A00BF9C
:1012100009FA02F401EA0403A3427DD106685700EB
:101220000325BD40AE430660D60800EB8606D6F81F
:1012300020C057074FEAD7680AFA08F72CEA070CCC
:10124000C6F820C08668AE4386604668A6434660FE
:10125000C468AC43C46022F003055D44D5F8087847
:101260009407260F0AFA06F4DFF8D4C02740604539
:1012700002D14FF0000C40E0DFF8C8C0604502D159
:101280004FF0010C39E0DFF8C0C0604502D14FF0EB
:10129000020C32E0DFF8B4C0604502D14FF0030C1D
:1012A0002BE0DFF8ACC0604502D14FF0040C24E025
:1012B000DFF8A0C0604502D14FF0050C1DE0DFF85B
:1012C00098C0604502D14FF0060C16E0DFF88CC0E4
:1012D000604502D14FF0070C0FE0DFF884C0604595
:1012E00002D14FF0080C08E0DFF878C0604502D169
:1012F0004FF0090C01E04FF00A0C0CFA06FCBC455B
:1013000016D1D5F80868A643C5F80868164C2568B4
:101310009D432560241D00E00AE025689D4325606B
:10132000241D25689D432560241D25689D43256057
:10133000521C102AFFF46CAFBDE8F08F0030014062
:10134000000002400004024000080240000C02407D
:10135000001002400014024000180240001C02402D
:101360000020024000240240003C01402DE9F84FDB
:10137000DFF890B100224FF001084FF0030A4FF060
:101380000F090BF1040E00BF0B6808FA02F42340AA
:10139000A3426ED14D68022D01D0122D0ED1D50879
:1013A00000EB850CDCF820505607F70E09FA07F61B
:1013B000B5430E69BE402E43CCF820600668550048
:1013C0000F790AFA05FC07F0030726EA0C06AF407E
:1013D000374307604E68012E05D0022E03D0112E30
:1013E00001D0122E0ED18768CE6827EA0C07AE40D6
:1013F0003E4386604668A6430C79C4F300149440CB
:1014000034434460C4688E6824EA0C04AE4026432A
:10141000C6604C68E4006FD53B4C256845F48045B8
:101420002560246822F0030504F480440094374CBE
:101430002E19D6F8084895072F0F09FA07F5AC437F
:10144000334DA84201D100252EE0324DA84201D1F2
:10145000012529E0304DA84201D1022524E02F4D7D
:10146000A84201D103251FE02D4DA84202D1042539
:101470001AE041E02B4DA84201D1052514E02A4D88
:10148000A84201D106250FE0284DA84201D1072529
:101490000AE0274DA84201D1082505E0254DA842C4
:1014A00001D1092500E00A25BD402543C6F80858AA
:1014B000DBF800405D464E689C43F60300D51C43B4
:1014C0002C60DEF8004075464E689C43B60300D59C
:1014D0001C432C600B4D08352C684E689C43F6026B
:1014E00000D51C432C60074D0C352C684E689C437E
:1014F000B60200D51C432C60521C102AFFF444AFE6
:10150000BDE8F88F003C0140443802400030014003
:10151000000002400004024000080240000C0240AB
:10152000001002400014024000180240001C02405B
:1015300000200240002402400AB181617047090482
:10154000FBE700000148806870470000B000002001
:1015500090F83D20202A01D002207047242280F8F4
:101560003D200268136823F0010313600268536A88
:1015700023F0100353620268536A0B4353620168FD
:101580000A6842F001020A60202180F83D10002024
:10159000704790F83D20202A01D002207047242275
:1015A00080F83D200268136823F00103136003688C
:1015B0005A6A22F00F020A4391B2596201680A681E
:1015C00042F001020A60202180F83D10002070479F
:1015D00010B5040013D0242084F83D002068016871
:1015E00021F001010160204600F02EFA0020206465
:1015F00084F83D0044F8300FA073207310BD012023
:1016000010BD90F83D00704770B5040004D094F808
:101610003D00002510B106E0012070BD84F83C506B
:10162000204600F02FFA242084F83D00206801684D
:1016300021F00101016000F02FFE33492268B0FB68
:10164000F1F15160314A6368934206D94FF49673C1
:1016500059434FF47A73B1FBF3F12368491C1962C3
:10166000616891420BD84900B0FBF1F2C2F30B0262
:10167000042A01D2042019E0B0FBF1F016E0A368BF
:101680009BB301EBC10202EB0112B0FBF2F242F498
:101690008042120530D04BB301EBC10202EB0111C5
:1016A000B0FBF1F040F4804040F400402168C86194
:1016B000D4E90701084321680860D4E9031008430E
:1016C00021688860D4E9050108432168C860206862
:1016D000016841F0010101602564202084F83D008B
:1016E000256384F83E50002070BD00E006E001EB69
:1016F0004102B0FBF2F2CCE70120D7E701EB410158
:10170000B0FBF1F0D0E7000040420F00A0860100DE
:101710002DE9FF4F83B09A46DDE9118793460446D1
:10172000DDF84090FFF70EFF054694F83D002028B5
:1017300074D11923012272492046009501F0A3FEBD
:101740000028F5D194F83C00012867D0012084F8E6
:101750003C0020680168C90703D1016841F001011C
:1017600001602068016821F400610160222084F892
:101770003D00402084F83E0000262664C4F82490F2
:10178000A4F82A805F48E062608D2085CDE900756D
:1017900053465A462046049901F086FD28B1206C34
:1017A00084F83C60042843D076E0208DC8B101283D
:1017B00020D00228206823D0416980690090208DC4
:1017C00003286BD801282AD04F4902283B464FF006
:1017D000000200955BD08846204601F054FEE8BB2D
:1017E00040E02068416981690091016841F400711D
:1017F000016076E02068016821F480610160F0E713
:10180000016821F4806101602068016841F4006191
:101810000160206841698069009062E06EE02A46BC
:101820003946204601F0A4FE30B1206C202833D088
:10183000012007B0BDE8F08F206847E0206801680C
:1018400041F40071016020680169606A421C6262B3
:101850000170208D401E2085608D00E01CE0401E40
:101860006085E9E72068016821F4806101602068F3
:101870000169606A421C62620170208D401E2085F1
:10188000608D401E60853B46002241460095204603
:1018900001F0F9FD0028D1D00320CAE72A463946D5
:1018A000204601F065FE0028BFD120680169606A0A
:1018B000421C62620170208D401E2085608D401E9A
:1018C000608520684169C94349070AD40169606A93
:1018D000421C62620170208D401E2085608D401E7A
:1018E0006085208D00287FF46AAF202084F83D00B9
:1018F00084F83E6084F83C6000209AE7022098E774
:10190000020010000000FFFF040001002DE9FF4F5E
:1019100083B09A46DDE9118793460446DDF840908E
:10192000FFF710FE064694F83D0020287DD11923CC
:10193000012243492046009601F0A5FD00287CD1F4
:1019400094F83C00012878D0012084F83C002068FD
:101950000168C90703D1016841F0010101602068F5
:10196000016821F400610160212084F83D004020DD
:1019700084F83E0000252564C4F82490A4F82A8049
:101980003048E062608D2085CDE9007653465A46A6
:101990002046049901F000FD80B3206C84F83C508F
:1019A000042848D008E032463946204601F011FEAE
:1019B00030B1206C042839D0032007B0BDE8F08F87
:1019C000606A411C6162216800780861208D401EB8
:1019D00080B22085618D491E618521684A69D243A4
:1019E00052070BD468B1606A421C626200780861D9
:1019F000208D401E2085608D401E6085208D002832
:101A0000D1D132463946204601F016FD0028D0D10A
:101A100054F83D0B016841F400710160202004F886
:101A20001E09E57765770020C7E706E020680168B2
:101A300041F4007101600120BFE70220BDE7000012
:101A4000020010000000FFFF10B50068094988423D
:101A50000FD10948016821F40001016041150748D0
:101A6000FFF7CCFBBDE810404FF480710448FFF74E
:101A7000C5BB10BD005C0040403802400008024079
:101A800000000240F0B587B0044614216846FEF716
:101A9000F3FB1C492068884231D11B4800240168AF
:101AA00041F004010160016801F004010591016841
:101AB00041F0010101600068122500F0010005906D
:101AC0004FF4007001268DE861000427CDE903473B
:101AD00069460E48FFF74AFC30028DE86100CDE907
:101AE000034769460A48FFF741FC07481030016880
:101AF00041F400010160006800F40000059007B0A7
:101B0000F0BD0000005C0040303802400008024098
:101B100000000240024881680278114481607047E9
:101B2000B00000200B4810B5016841F4007101605D
:101B3000016841F480610160016841F480710160D5
:101B4000032000F0E5F9002000F006F800F09AF913
:101B5000002010BD003C024070B50D4D04464FF40E
:101B60007A712878B1FBF0F00A490968B1FBF0F00E
:101B700001F050FA48B9102C07D200222146501E1D
:101B800000F0A6F900206C6070BD012070BD00005F
:101B9000B0000020BC0000202DE9F041044690F880
:101BA000A00016460F4601281DD0012584F8A0503C
:101BB000022084F8A10006EB860000EBC60004EBCF
:101BC000800034223830FEF73EFB3246394620464C
:101BD00001F0EAFE2068456284F8A150002084F8F4
:101BE000A000BDE8F0810220FBE7000090F8A01003
:101BF00001290ED0012100F8A01F02224270064ADE
:101C0000136843F48033136041700021017008466B
:101C100070470220704700001868014070B504004A
:101C200004D094F8A100002510B106E0012070BD99
:101C300084F8A050204600F06BF8022084F8A10040
:101C40002068816921F070418161D4E90101084374
:101C5000D4E903121143084321688A69104388615B
:101C600021688A68294802408A60A18A0A0421689A
:101C70008B68A669334313438B602168CA680240AE
:101C8000CA60A18B0B042168CA68266A32431A43D2
:101C9000CA6021680A6902400A61A18C22680B04AB
:101CA0001169A66A31431943116121684A690240EA
:101CB0004A61A08D010420684269236B1A430A43DC
:101CC000426194F835002168020294F83600CB6A2C
:101CD00003F07F43CB622168CB6A94F8346042EA18
:101CE000004033430343CB622068416B41F006015F
:101CF00041632068816941F001018161C4F8A45009
:101D0000012084F8A100002070BD000000F800F060
:101D10002DE9F04186B0044614216846FEF7ACFA7E
:101D20005049206888427CD14F480024016841F026
:101D300080610160006800F0806005904A481438B6
:101D4000016841F020010160016801F02001059166
:101D5000016841F001010160016801F00101059194
:101D6000016841F002010160016801F00201059182
:101D7000016841F040010160016801F040010591F6
:101D8000016841F004010160016801F0040105915E
:101D9000016841F0080101600068022500F00800B8
:101DA00005904FF480600090CDE901540E26CDE9F6
:101DB000034669462D48FFF7D9FA41F658000090CE
:101DC000CDE90154CDE9034669462948FFF7CEFA2B
:101DD00003200090CDE901540927DFF89880CDE970
:101DE000034769464046FFF7C1FA4FF47060009020
:101DF000CDE90154CDE9034669464046FFF7B6FAFE
:101E00004FF40C600090CDE90154DFF86C80CDE90F
:101E1000034669464046FFF7A9FA4FF498600090E0
:101E200000E01CE0CDE90154CDE9034669461348C2
:101E3000FFF79CFA48200090CDE90154CDE9034614
:101E400069460F48FFF792FA4FF4A0500090CDE991
:101E50000154CDE9034769464046FFF787FA06B0CB
:101E6000BDE8F0810068014044380240001402409F
:101E70000000024000040240001802400008024036
:101E8000000C02400B4882B0016841F480410160BF
:101E9000006800F4804000900648001F016841F08F
:101EA00080510160006800F080500090072002B06F
:101EB00000F02EB84438024000F01F02012191408A
:101EC0004009800000F1E020C0F8001170470000D8
:101ED000F0B40E4B1B680C46C3F30223C3F1070595
:101EE000042D00D90425191D072901D2002300E083
:101EF000DB1E012606FA05F1491E214099409E404D
:101F0000761E16403143F0BC02F03AB80CED00E00A
:101F1000064900F0070208684FF6FF03184040EA40
:101F20000220034A10430860704700000CED00E0F7
:101F30000000FA052DE9F84F04460068DFF804A216
:101F4000814F824DC1074FF001084FF0000601D1CB
:101F500080073CD5CAF86860FFF7F4FA814605E0CF
:101F6000FFF7F0FAA0EB0900022878D828680001F2
:101F7000F6D42078C107764805D06168227A8901B5
:101F800041EA027101602178890711D50168626810
:101F9000237B9201C1F3027142EA036242EA0171BA
:101FA00001603868E16920F01F00491E084338606D
:101FB000CAF86880FFF7C6FA814605E0FFF7C2FA63
:101FC000A0EB090002284AD828680001F6D520684D
:101FD000410701D400074CD5CAF87060FFF7B2FA88
:101FE000814605E0FFF7AEFAA0EB0900022836D8DB
:101FF0002868C0438000F5D520784107554814D59E
:1020000001682269237D9201C1F3027142EA0362F1
:1020100042EA017101603968226A6FF0FF0321F41E
:10202000F85103EB0222114339602178090710D5DA
:1020300001682269C1F30361920142EA0161227ED3
:1020400041EA027101603868616A20F44030084357
:102050003860CAF87080FFF775FA074605E048E077
:10206000FFF770FAC01B022843D82868C0438000DD
:10207000F6D42078800653D534484030016841F0CA
:10208000805101600068344D00F080500090286855
:1020900040F480702860FFF755FA074605E000BF5E
:1020A000FFF750FAC01B022823D82868C005F7D5CF
:1020B000274D143D286810F4407020D0218D01F484
:1020C000407181421BD02868244920F44070C1F837
:1020D00000800E6028602868C00710D0FFF732FA31
:1020E000064641F2883707E0FFF72CFA801BB8421A
:1020F00002D90320BDE8F88F28688007F4D5A16ACB
:102100001248C1F301220830032A13D0016821F4D8
:10211000F81101602868218DC1F30B010843286084
:102120002078C00604D50E4994F82C00C1F8E001CF
:102130000020DFE702680B4B22F4F81219400A4333
:102140000260E7E7000047428C3802400038024056
:10215000843802408838024000700040400E4742F8
:1021600000104742FFFCFF0F2DE9F0470E46050027
:1021700065D0DFF81481D8F80000F7B200F00F0046
:10218000B04207D288F80070D8F8000000F00F00C5
:10219000B04254D128683D4C810712D5400703D581
:1021A000206840F4E05020602878000703D52068BC
:1021B00040F4604020602068A96820F0F0000843E7
:1021C00020602878C0072DD0304968680839012878
:1021D00012D0022813D0032811D0096889070029DA
:1021E0002DDA216821F0030101432160FFF7AAF9EC
:1021F000814641F2883A0EE009688903EFE70968F1
:102200008901ECE7FFF79EF9A0EB0901514502D9DE
:102210000320BDE8F0872068696800F00C00B0EB8F
:10222000810FEFD1D8F80010404601F00F01B14204
:1022300007D90770006800F00F00B04201D00120FC
:10224000E7E72878400705D52068E96820F4E050E2
:10225000084320602878000706D52068296920F403
:10226000604040EAC100206000F036F82168084A6A
:10227000C1F30311515CC840064908600020FFF714
:102280006BFC0020C5E70000003C0240083802401B
:1022900066790008BC000020044805490068096808
:1022A000044AC1F38221515CC8407047BC00002041
:1022B0000838024076790008044805490068096832
:1022C000044AC1F34231515CC8407047BC00002051
:1022D0000838024076790008154810B5006810F0FB
:1022E0000C02144813D04110042A0FD0082A0ED132
:1022F0000F4C241F2268236802F03F025B0207D5BF
:102300002068C0F38810A0FB010106E0084610BD5C
:102310002168C1F38811A1FB00010023FDF762FFD2
:102320002168C1F30141491C4900B0FBF1F010BD27
:10233000083802400024F4002DE9F84F050076D05B
:102340002878DFF8F8B2BE4CC00749D0DBF800109F
:102350005846C1F38101012908D00068C0F381000B
:1023600002280AD1201D0068400206D5206880039B
:1023700036D568680028E2D032E06868B0F5803F62
:1023800010D0B0F5A02F206810D020F4803020604D
:10239000206820F4802020606868A0B1FFF7D2F8A0
:1023A00006460CE0206840F48030F4E740F48020DA
:1023B0002060F7E7FFF7C6F8801B642873D8206811
:1023C0008003F7D50CE0FFF7BDF8064605E000BF37
:1023D000FFF7B8F8801B6428F0D820688003F7D492
:1023E0002878DFF8608280074FF000093ED5DBF8DF
:1023F0000010584611F00C0F09D00068C0F381009E
:1024000002280BD18D48001F0068400206D42068C6
:10241000800715D5E868012809D111E0E868B8B14E
:102420000120C8F80000FFF78DF8064605E002E13C
:10243000FFF788F8801B0228C0D820688007F7D5EE
:102440002068296920F0F80040EAC10020600DE012
:10245000C8F80090FFF776F8064604E0FFF772F838
:10246000801B02281FD820688007F7D4287800072F
:1024700022D5724E744869696C3671B101210160D0
:10248000FFF760F8074604E0FFF75CF8C01B02287E
:1024900009D830688007F7D50EE0C0F80090FFF744
:1024A00051F8074605E083E0FFF74CF8C01B02280F
:1024B0007ED830688007F7D42878400768D5DFF8E1
:1024C0007CA100270AF1380ADAF80000C0000BD41A
:1024D000DAF8001041F08051CAF80010DAF8000074
:1024E000012700F080500090584E3068C00510D48D
:1024F000306840F480703060FFF724F8009005E009
:10250000FFF720F80099401A022851D83068C0051A
:10251000F6D54A4EA868683601280FD005283068DD
:1025200010D020F001003060306820F004003060EE
:10253000A868B8B1FFF706F800900FE0306840F0E7
:102540000100F4E740F004003060F7E7FEF7FAFF1F
:102550000099411A41F28830814264D8306880077E
:10256000F4D50EE0FEF7EEFF009007E0FEF7EAFF7D
:102570000099411A41F28830814254D8306880076E
:10258000F4D42FB1DAF8001021F08051CAF800100D
:10259000A869C0B3DBF80010C1F3810102294AD059
:1025A0000228484607D0C8F86000FEF7CBFF00E0DD
:1025B00039E005463AE04746C8F86000FEF7C2FF3A
:1025C000064604E0FEF7BEFF801B02282BD82068D9
:1025D0008001F7D4D5E907010843A96A1C4A4908D4
:1025E00002EB01416A6A41EA8211084395F82C1016
:1025F00040EA01611148001F016001203866FEF7C2
:10260000A1FF054605E014E0FEF79CFF401B0228F1
:1026100009D820688001F7D50BE000BFFEF792FFD4
:10262000401B022802D90320BDE8F88F20688001F2
:10263000F4D40020F8E70120F6E700000838024053
:102640000038024000004742800E474200700040C0
:102650000000FFFF10B500680B4641680D480140BF
:10266000080CD870C1F304245C7001F03F049C7026
:10267000C1F34231197052B901F093FCD870587807
:1026800001F08FFC5870987801F08BFC9870002056
:1026900010BD00003FFFFF0010B50B460168896ABE
:1026A000596001680969C1F30E0199600068016809
:1026B0000E480140C1F305401870C1F306245C7058
:1026C00001F07F049C70402404EA1141D97052B992
:1026D00001F067FC1870587801F063FC5870987826
:1026E00001F05FFC9870002010BD00007F7F7F002C
:1026F00070B5040002D0607F10B106E0012070BD0B
:1027000000202077204600F049F8022060772168F9
:10271000CA204862216853204862204601F056FCD6
:10272000FF25042618BB206881681B4A1140816080
:102730002168886862681043D4E904231A4310436F
:1027400088602168E068086120680169228941EA9F
:10275000024101612068C16821F08001C1602068E8
:102760008068800607D4204600F000F918B1206880
:1027700045626677C2E72068016C21F4802101641C
:102780002068016CA2691143016420684562012040
:102790006077002070BD0000BFFF8FFF0068034915
:1027A000884202D102490120086070470028004099
:1027B0003C0E47422DE9F0470446007F0B460128B6
:1027C0001FD04FF0010984F81C9002206077DAB125
:1027D0009878D97840EA014558781978000240EA9B
:1027E000413005432168CA2048622168532048626D
:1027F000204601F0EBFB0026FF274FF0040860BBEA
:102800001AE00220BDE8F0875878C10603D500F031
:10281000EF000A305870D87801F0CCFB02045878E9
:1028200001F0C8FB42EA0022987801F0C3FB0243A2
:10283000187842EA4035D5E70F48054020684560E2
:102840002068C16821F08001C1602068806880062E
:102850000AD4204600F08AF830B12068476284F834
:102860001D8026770120CDE72068476284F81D90FF
:1028700026770020C6E700003FFFFF002DE9F04764
:102880000446007F0D46012811D04FF0010A84F85C
:102890001CA0022060772068002680684FEA406014
:1028A00042B100281ADA287801F07BFB17E00220F9
:1028B000BDE8F087002800DBEE70287801F07AFB95
:1028C0000204687801F076FB42EA0022A87801F061
:1028D00071FB0243E87842EA00470AE0EE70A8780C
:1028E000297840EA01476878E978000240EA014027
:1028F00007432168CA204862216853204862204665
:1029000001F064FB4FF0FF084FF00409E0B91648EE
:102910000740206807602068816821F48021816079
:10292000D5E90301084321688A681043886020685C
:10293000C16821F08001C1602068806880060BD4E6
:10294000204600F013F838B12168C1F8248084F8DB
:102950001D9026770120ABE72168C1F8248084F818
:102960001DA026770020A3E77F7F7F0070B5044677
:102970000068C16821F0A001C160FEF7E3FD0546D3
:102980004FF47A7607E000BFFEF7DCFD401BB04253
:1029900001D9032070BD2068C0688006F4D50020EE
:1029A00070BD70B50D46040003D094F82C0010B132
:1029B00007E0012070BD002084F82D00204600F0C3
:1029C00011F8022084F82C00211D2068FEF70BF975
:1029D000D4E900022946FEF759F9012084F82C00B9
:1029E000002070BDFEF7A0BB10B5044690F82C0087
:1029F000022809D0022084F82C002068FEF71BF979
:102A0000012084F82C00002010BD000070B50446A1
:102A100090F82C000D4602280DD0022084F82C00DE
:102A20002068FEF70EF92868022805D05FF0010043
:102A300084F82C00002070BD0520F9E710B50400D3
:102A400011D0022084F851002068016821F0400173
:102A50000160204600F04CF80020606584F85100C9
:102A600084F8500010BD012010BD90F8510070474F
:102A700070B5040005D00025A56294F8510010B18E
:102A800006E0012070BD84F85050204600F046F862
:102A9000022084F851002068016821F040010160A3
:102AA000D4E901010843D4E90312114308436169E1
:102AB0000843218B01F400710843E1690843216A4E
:102AC0000843A16A084321680860A069042101EA5B
:102AD0001040616A0843216848602068C16921F498
:102AE0000061C1616565012084F85100002070BD5E
:102AF00000680749884209D10648016821F480111D
:102B000001604FF460710448FEF778BB7047000025
:102B100000500140443802400014024010B586B015
:102B2000044614216846FDF7A7FB13492068884234
:102B300020D112480021026842F48012026000682D
:102B400000F4801005900D481438026842F020020D
:102B50000260006800F0200005904FF46070009063
:102B60000220CDE901010520CDE9031069460448A2
:102B7000FEF7FCFB06B010BD005001404438024097
:102B8000001402402DE9F84F04464068002698469C
:102B900017460D464FF00409B0F5827F01D1A068B9
:102BA00090B194F85000012819D04FF0010B84F82F
:102BB00050B0FEF7C7FC009094F851004FF0000AA7
:102BC00001280ED002267FE084F8519013460A4671
:102BD0002046CDF8008000F031F9BDE8F88F0220E2
:102BE000FBE7002D6FD0002F6DD084F85190C4F812
:102BF00054A0A563A787E787C4F830A0A4F834A041
:102C0000A4F836A0C4F840A0C4F844A0A0684FF4CB
:102C10000047B84204D12068016821F48041016076
:102C200020680168490603D4016841F04001016051
:102C3000E068B8B133E020688168C90706D0007B3E
:102C400005F8010BE08F401EE0870BE0B8F1000FA4
:102C500023D0B8F1FF3F05D0FEF774FC0099411A6C
:102C600041451AD2E08F0028E5D11BE02068816839
:102C7000C90706D0C06825F8020BE08F401EE08728
:102C80000DE0B8F1000F08D0B8F1FF3F07D0FEF714
:102C900059FC0099411A414501D3032614E0E08F05
:102CA0000028E3D16068B0F5827F0AD1A068B842FD
:102CB00002D0B0F5806F04D12068016821F0400196
:102CC0000160606D00B1012684F851B084F850A015
:102CD000304682E72DE9F84F044690F85000002670
:102CE000994617460D4601280DD04FF0010B84F888
:102CF00050B0FEF727FC804694F85100B2460128F8
:102D000004D0022694E00220BDE8F88F002D7BD08D
:102D1000002F79D0032084F85100C4F854A0256313
:102D2000A786E786C4F838A0A4F83CA0A4F83EA083
:102D3000C4F844A0C4F840A0A068B0F5004F04D186
:102D40002068016841F480410160206801684906FB
:102D500003D4016841F040010160E068B0F5006F04
:102D6000606804D030B3E08E012823D03EE010B17B
:102D7000E08E01281AD135F8021B206805E0206892
:102D80008168890706D535F8021BC160E08E401EB8
:102D9000E0860BE0B9F1000F34D0B9F1FF3F05D068
:102DA000FEF7D0FBA0EB080149452BD2E08E0028AE
:102DB000E5D11EE0216815F8010B087306E02068D4
:102DC0008168890706D515F8011B0173E08E401E46
:102DD000E0860BE0B9F1000F14D0B9F1FF3F05D048
:102DE000FEF7B0FBA0EB080149450BD2E08E0028AE
:102DF000E5D14B46012202212046CDF8008001F0AA
:102E000012F910B1032613E011E04246494620466C
:102E100001F0F9F818B101262020606508E0A068EB
:102E200018B92068C16880680090606D00B1012603
:102E300084F851B084F850A0304665E72DE9F84F8A
:102E4000044690F8500000260A9F9A4693460D4685
:102E50004FF0010801280ED0012084F85000FEF741
:102E600071FB814694F85100616801280CD0B1F5DE
:102E7000827F07D102E00220BDE8F88FA16809B97E
:102E8000042801D00226BDE055B1BBF1000F07D0E8
:102E9000BAF1000F04D094F85100012802D004E0E8
:102EA0000126AFE0052084F8510000206065C4F8D9
:102EB00038B0A4F83EA0A4F83CA02563A4F836A03E
:102EC000A4F834A02064606420680168490603D433
:102ED000016841F040010160E068B0F5006F606892
:102EE00004D0E8B3E08E01283BD06AE010B1E08E58
:102EF00001282ED1216835F8020BC860E08E401EF3
:102F0000E08626E0B8F1000F0DD0E08E58B12068C1
:102F10008168890707D535F8021BC160E08E401E25
:102F2000E0864FF00008E08F58B120688168C9073B
:102F300007D0C0682BF8020BE08F401EE0874FF0EF
:102F40000108781C05D0FEF7FDFAA0EB0900B84295
:102F500046D2E08E0028D5D1E08F0028D2D136E0CD
:102F6000FFE7216815F8010B0873E08E401EE0862C
:102F700027E000BFB8F1000F0DD0E08E58B12068F7
:102F80008168890707D515F8011B0173E08E401E83
:102F9000E0864FF00008E08F58B120688168C907CB
:102FA00007D0C0680BF8010BE08F401EE0874FF0A0
:102FB0000108781C05D0FEF7C5FAA0EB0900B8425D
:102FC0000ED2E08E0028D5D1E08F0028D2D13B462A
:102FD000012202212046CDF8009001F024F808B12A
:102FE00003260FE04A463946204601F00CF818B196
:102FF00001262020606505E0A06818B92068C16836
:1030000080680090012084F85100002084F850006E
:10301000304631E710B5401EB0F1807F01D301206A
:1030200010BD4FF0E02460610F21601700F0A8FF91
:103030000020A06107202061002010BD70B50400B1
:1030400004D094F83900002510B106E0012070BDCD
:1030500084F83850204600F023F8242084F8390002
:103060002068C16821F40051C160204601F012F9C6
:103070002068016921F4904101612068416921F0D3
:103080002A0141612068C16841F40051C160E563D3
:10309000202084F8390084F83A00002070BD000038
:1030A00010B586B0044614216846FDF7E5F81449CA
:1030B0002068884221D11348016841F01001016065
:1030C000006800F0100005900E481438016841F0C7
:1030D000010101600068694600F0010005904FF4AD
:1030E000C060009002200190012002900320039014
:1030F000072004900448FEF739F906B010BD00001F
:103100000010014044380240000002402DE9F8431D
:10311000044690F83A00994616460D4620284FD1AD
:1031200095B18EB194F83800012849D0012084F877
:1031300038000027E763222084F83A00FEF702FAFD
:10314000A6858046E68531E00120BDE8F883E08D64
:10315000401EE085A0684346B0F5805F4FF0000256
:103160004FF020012046CDF8009004D001F0E8F99E
:1031700098B10320E9E701F0E3F90028F9D12069CB
:1031800000282068406803D0C1B225F8011B0DE07B
:10319000C0F3080125F8021B08E020690028206818
:1031A000406801D000F07F0005F8010BE08D002899
:1031B000CDD1202084F83A0084F838700020C4E78C
:1031C0000220C2E72DE9F843044690F839001F4673
:1031D00016460D46202850D1A5B19EB194F838006E
:1031E00001284AD0012084F838004FF00008C4F8C4
:1031F0003C80212084F83900FEF7A4F9A68481469A
:10320000E68426E00120BDE8F883E08C401EE084DF
:10321000A0684B46B0F5805F4FF000024FF0800190
:103220002046009703D001F08BF9E8B90DE001F0DA
:1032300087F9C8B928882168C0F308004860206968
:1032400008B16D1C05E0AD1C03E0216815F8010B09
:103250004860E08C0028D8D14B460022402120460F
:10326000009701F06DF908B10320CCE7202084F825
:10327000390084F838800020C5E70220C3E7FEE764
:1032800001684A69D24352050CD46FF480624A61E6
:1032900004210164002140F8301F20224273017391
:1032A00001207047002070472DE9F84F0446006860
:1032B00089460B9D01689846174641F4806101607C
:1032C0002068016841F48071016000954FF0011A97
:1032D0000022514620460A9B00F0D5F8F0BB216839
:1032E00009F0FE0008610AF1010B2B465946204601
:1032F0000A9A00F0F9F818B1206C042812D03AE0CC
:1033000020684169806900902A4620460A9900F0A9
:1033100060F950B1206C04282DD12068016841F477
:10332000007101600120BDE8F88FFEB2B8F1010F15
:1033300009D02168380A08612A4620460A9900F017
:1033400048F90028E6D1206806612A4620460A99F5
:1033500000F03FF90028DDD1206800E00BE00168B3
:1033600041F48071016000950022514620460A9B7D
:1033700000F089F808B10320D5E7216809F0FF00C3
:1033800040F0010008612B46594620460A9A00F099
:10339000ABF80028B0D1C6E72DE9F8430446006831
:1033A0000D46DDE9089701689846164641F480719C
:1033B00001604B4600224FF001112046009700F0BB
:1033C00062F8E8B9216805F0FE0008613B464A460C
:1033D0001849204600F088F828B1206C04280FD145
:1033E0000120BDE8F88320684169806900903A4671
:1033F0004946204600F0EDF820B1206C042813D097
:103400000320EEE7F5B2B8F1010F09D02168300AC8
:1034100008613A464946204600F0DBF80028ECD126
:10342000206805610020DCE72068016841F4007134
:103430000160D5E70200010070B516460D4604464E
:103440001AE02046FFF71CFF08B1012070BD681C80
:1034500012D025B1FEF776F8801BA8420CD954F89B
:10346000400F40F0200044F8100900202060202187
:1034700061732073032070BD20684069C04340071A
:10348000DFD4002070BD2DE9F0471E4690460D4662
:103490000446C1F30747DDF8209012E0701C10D0FD
:1034A0002EB1FEF74FF8A0EB0900B04209D9002079
:1034B00044F8300F20216173A07320730320BDE80E
:1034C000F0872068012F0AD0806925EA00000004F7
:1034D000000C06D000214145E0D00020EFE7406914
:1034E000F3E70121F7E700002DE9F0479A469146FE
:1034F0000D46044600264FF02008C1F307472AE096
:1035000020684069C043400512D42068016841F436
:103510000071016021686FF48060486104202064BC
:10352000266384F83D8084F83C600120BDE8F08784
:10353000B9F1FF3F0FD0B9F1000F05D0FEF702F847
:10354000A0EB0A01494506D944F8306F84F80D8094
:1035500026730320EAE72068012F07D0D0F818006F
:1035600025EA00000004000CE0D0C9E74069F7E755
:103570002DE9F041002590460E460446202721E023
:103580004069C043C0060CD421686FF01000486148
:103590002564256384F83D7084F83C500120BDE823
:1035A000F0812EB1FDF7CEFFA0EB0800B04209D9A3
:1035B00054F8400F40F0200044F80409677025706B
:1035C0000320ECE720684169C9434906D8D40020AC
:1035D000E5E770B516460D4604461AE02046FFF7AB
:1035E0004FFE08B1012070BD681C12D025B1FDF757
:1035F000A9FF801BA8420CD954F8400F40F02000CE
:1036000044F81009002020602021617320730320FA
:1036100070BD20684069C0430006DFD4002070BD43
:1036200010B50348FDF7D4FFBDE8104000F002B824
:10363000C000002010B50E48FDF7E3FF002815D1AB
:103640000B480C494FF4804201600B494160002156
:103650008160C0E9031241618161C161016200F0D2
:103660000DF8BDE810400248FDF7CEBF10BD0000C8
:10367000C0000020005C0040A086010000B500688A
:10368000284987B088424AD127480021026842F081
:1036900004020260026802F004020592026842F02D
:1036A00001020260006800F0010005904FF4807094
:1036B00000901220CDE90101022003900420049023
:1036C00069461A48FDF752FE4FF4007000906946B3
:1036D0001748FDF74BFE14481030016841F4000113
:1036E0000160006800F4000005900F481038016880
:1036F00041F400010160016821F400010160002231
:103700000F214820FEF7E4FB4820FEF7D5FB0022FE
:103710000F214920FEF7DCFB4920FEF7CDFB07B067
:1037200000BD0000005C0040303802400000024054
:1037300000080240FDF7E6BC104800B5026887B0FB
:10374000002142F001020260006800F001000590D3
:103750004FF4004000900120CDE90201084801909B
:1037600069460848FDF702FE00220F212820FEF7D7
:10377000AFFB2820FEF7A0FB07B000BD30380240A9
:103780000000211000000240FFF754BF1FB50A4699
:1037900001460020084C8DF80C000123A46803A802
:1037A0008DE819000548FDF7B3FF08B1FFF738FFB2
:1037B0009DF80C0004B010BD00000020C0000020E7
:1037C0003EB514460A460146074880680094CDE994
:1037D000013001230548FDF79BFF002802D0FFF7C9
:1037E0001FFF01203EBD000000000020C00000209F
:1037F0001FB51346084C0A468DF80C300146A468E4
:10380000012303A88DE819000448FEF77FF800287B
:1038100001D0FFF705FF1FBD00000020C000002001
:10382000FDF770BC2DE9F041244886B001780029ED
:1038300040D1234C012505702068002640F0080087
:1038400020602068022700F00800059068038DE8DA
:10385000E100DFF8708069464046FDF787FD20688B
:1038600040F0080020602068694600F008000590DC
:10387000A0148DE8E1004046FDF778FD206840F097
:10388000040020602068104C00F004000590042023
:103890008DE8E10069462046FDF768FD002204211D
:1038A0002046FDF749FE012204212046FDF744FE93
:1038B00000F00EFC06B0BDE8F08100000000002022
:1038C00030380240000C0240000802402DE9F84365
:1038D000154D0C460746002204212846FDF72CFE14
:1038E000DFF848804FF40056002231464046FDF78D
:1038F00023FE384600F03AFC0D4822466946C3686C
:103900000C48FFF73FF908B100F0D8FB012231461F
:103910004046009CFDF710FE012204212846FDF7D9
:103920000BFE2046BDE8F88300080240000C024070
:10393000000000201401002070B50546012251034B
:103940000948FDF7F9FD094C002204212046FDF746
:10395000F3FD284600F00AFC2046BDE87040012235
:103960000421FDF7E9BD0000000C02400008024000
:1039700070B5054600224FF400510948FDF7DCFD03
:10398000084C002204212046FDF7D6FD284600F011
:10399000EDFB2046BDE8704001220421FDF7CCBDBF
:1039A000000C024000080240F0B503688C88DD6816
:1039B000C5F30B452C442504882404EBC2141E597E
:1039C00006F470461E5103680F68DE68C6F30B46A6
:1039D000761C3E442E431E5104688B89E568C5F36E
:1039E0000A052B441D048C2303EBC213E65806F48E
:1039F0007046E65004688F68E668C6F30A06761CCF
:103A00003E442E43E6509423046803EBC213E5586A
:103A100025F00705E55005680C69EC5091F8313048
:103A20000C7E1F0226069C24056804EBC21491F844
:103A3000323055F804C04FF0000C45F804C091F83E
:103A4000305046EA03433D431D4303681D5198230C
:103A5000046803EBC213E55825F0FF05E55005683F
:103A60004C69EC50A023046803EBC213E55840F204
:103A70000776B543E550D1E907452C430568EC507E
:103A8000AC23046803EBC213E55844F803C005688F
:103A90004C6AEC500B698BB3012B32D0042B32D023
:103AA000022B30D0032B2ED0072B2CD00123B02497
:103AB000056804EBC2142E5906F0E0262E51D1E918
:103AC0000065AD1B0E8D5D435E43ED1C45EA06436C
:103AD00005682B51B423046803EBC213E5586FF358
:103AE0000A05E5500468C96AE1500068842101EBC9
:103AF000C211425842F001024250F0BDFFE70423D8
:103B0000D5E70323D3E70223D1E700000F4810B520
:103B10000D49016000210222C0E90112C160C0E923
:103B20000A1201634163FDF775F908B1FDF75AF810
:103B300001210648FDF71AF9002803D0BDE810401E
:103B4000FDF750B810BD000000B002406C0400202A
:103B500000B5134887B01149016001210022C0E976
:103B600001120421C16010214023C0E90413802305
:103B7000C0E90632026242628262009101910291C2
:103B800003910491059106916946FEF70AFF00280A
:103B900001D0FDF727F807B000BD0000400100A0EC
:103BA000AC0400202DE9F04F87B014216846FCF7E3
:103BB00063FB5F480024016841F004010160016873
:103BC00001F004010591016841F0200101600168E4
:103BD00001F020010591016841F080010160016858
:103BE00001F080010591016841F001010160016867
:103BF00001F001010591016841F0020101600168D5
:103C000001F002010591016841F040010160016885
:103C100001F040010591016841F010010160016867
:103C200001F010010591016841F008010160006890
:103C3000DFF8009100F008000590002216214846A8
:103C4000FDF77AFCDFF8F0A0002280215046FDF756
:103C500073FCDFF8E8B04FF440570022394658466D
:103C6000FDF76AFC4FF4C048002241463448FDF796
:103C700063FC162000900125CDE9015469464846B1
:103C80000394FDF773FB2F4E48F20700CDE90006C1
:103C9000694602945046FDF769FB80200090CDE90B
:103CA0000154694650460394FDF760FB2020CDE99E
:103CB0000006694602944846FDF758FB0420CDE90A
:103CC0000004214E694630460294FDF74FFB4FF445
:103CD000504000900220CDE901040C20CDE90340C2
:103CE00069463046FDF742FB6803CDE900046946AA
:103CF00030460294FDF73AFBE802CDE9000469463C
:103D000058460294FDF732FB0097CDE9015469460D
:103D100058460394FDF72AFBCDF80080CDE9015405
:103D2000694607480394FDF721FB07B0BDE8F08F13
:103D3000303802400008024000000240000C0240FF
:103D4000001802400000121000040240144810B590
:103D5000124901601349416000214FF480428160A3
:103D6000C0E9031241618161C1610162FDF74CFC50
:103D700008B1FCF737FF00210948FDF7E9FB08B15E
:103D8000FCF730FF00210648FDF703FC002803D0B4
:103D9000BDE81040FCF726BF10BD0000005C0040ED
:103DA000E0040020A086010070B59AB03421684676
:103DB000FCF762FA34210DA8FCF75EFA2F482E4971
:103DC0000024C0E9001484600721C460C0E90441F4
:103DD000032181610E210525C0E907154FF4A77164
:103DE0004162F52181624FF4AA71C162F72101633A
:103DF00080F8344080F8354080F83640FDF70EFFFB
:103E000008B1FCF7EFFE019402944FF48066CDE90F
:103E10000646039404940094CDE908548DF830408C
:103E200005948DF831400A940B948DF832400022AD
:103E300069461248FDF7B0FE08B1FCF7D3FE0D94B9
:103E40000E940F94109411941294CDE91346CDE979
:103E500015548DF864408DF86540179418948DF8CA
:103E6000664001220DA90548FDF796FE002801D005
:103E7000FCF7B8FE1AB070BD0068014034050020A0
:103E800010B586B014216846FCF7F6F91B480024EB
:103E900019490594C0E900147F218160FF21C0E920
:103EA000031444618461FEF723FC08B1FCF79AFE19
:103EB0008DF800408DF801408DF8024003940022F7
:103EC00069460E480494FEF7D9FC08B1FCF78AFE57
:103ED00001208DF814008DF815008DF816008DF86E
:103EE0001740002205A90548FEF764FC002801D010
:103EF000FCF778FE06B010BD00280040DC0500206D
:103F00000F4810B50D4901604FF4827141600021E6
:103F10008160C1604FF400720161C0E90512C161A6
:103F20000162416281620A21C162FEF7A1FD00289F
:103F300003D0BDE81040FCF755BE10BD0050014055
:103F4000FC0500200C4810B50A4901604FF41651D9
:103F50004160002181600C22C160C0E904128161CE
:103F6000C161FFF76BF8002803D0BDE81040FCF7F3
:103F700039BE10BD0010014054060020FEE7704716
:103F80000907090E002806DA00F00F0000F1E02012
:103F900080F8141D704700F1E02080F8001470478D
:103FA0007047010901EB810100F00F0000EB4100B7
:103FB000C0B27047002102E00A38C0B2491C0A288A
:103FC000FAD2090740EA11607047000070B5044654
:103FD0000068C168490614D44FF0FF31C160FDF795
:103FE000B1FA05464FF47A7607E000BFFDF7AAFA6A
:103FF000401BB04201D9032070BD2068C068400654
:10400000F4D5002070BD38B50B460092044600225E
:10401000802100F008F8002804D0606D40F02000F6
:104020006065032038BD2DE9F0411D4617460E4658
:104030000446DDF8188035E0681C33D02DB1FDF75B
:1040400081FAA0EB0800A8422CD32068416821F037
:10405000E00141606068B0F5827F0BD1A068B0F5E7
:10406000004F02D0B0F5806F04D12068016821F0C4
:1040700040010160A06AB0F5005F0AD120680168C4
:104080004DF6FF72114001602068016841F4005153
:104090000160012084F85100002084F850000320C2
:1040A000BDE8F0812068806836EA000004D0002076
:1040B000B842C1D10020F3E70120F9E710B5034869
:1040C000FEF7BCFCBDE8104000F002B8140100206F
:1040D00000B587B02148FEF7C8FC00283BD11F4837
:1040E0001F4901601821C1610021816041610722DF
:1040F0000161C0E90A12C1604FF40072016282617D
:1041000041624FF4827141601648016841F48011A8
:104110000160006800F480100590124814380168AE
:1041200041F0200101600068694600F02000059020
:104130004FF46070009002200190029001200390E3
:10414000052004900848FDF711F907B003485DF811
:1041500004EBFEF78DBC07B000BD00001401002089
:1041600000500140443802400014024001B50648A6
:1041700001226946C3680548FEF7ACFD002801D05E
:10418000FFF79CFF08BD0000000000201401002084
:104190007047FDF7BFBC000030B59FB030216846C6
:1041A000FCF76AF8142118A8FCF766F830210CA86F
:1041B000FCF762F820480025016841F08051016059
:1041C000006800F080501D901C48016841F4404197
:1041D00001600068022400F440401D900920009016
:1041E0004FF4803001900120CDE90504800507904F
:1041F00004200890A820CDE9090407200B90684608
:10420000FEF79AF818A90F2081E831004FF4A0506A
:104210001B901C90052118A8FDF7A6FF28200C90E4
:10422000D820109012942002CDE915500CA8FDF76B
:1042300081FE1FB030BD00004038024000700040D9
:104240001048016841F4700101600F48016841F0B5
:10425000010101600C4A00210832116002680B4B19
:104260001A400260031D0A4A1A60026822F4802282
:10427000026005480C300160024958068039086028
:104280007047000088ED00E000380240FFFFF6FEB6
:10429000103000242DE9F04104460068016921F442
:1042A0004052E168114301612168C86849F20C621B
:1042B00090432369A268E5691A4363692B431A4353
:1042C0000243CA602168486920F44072A069104323
:1042D0004861E1696425B1F5004F9748974A216824
:1042E0004FF032083FD0914201D081427CD1FDF79E
:1042F000E3FF00EBC00101EB001061688900B0FB37
:10430000F1F6FDF7D9FF00EBC00101EB0010616889
:104310008900B0FBF1F0B0FBF5F06FF018014843F5
:1043200006EB800108EB0110B0FBF5F000F0F006A1
:10433000FDF7C2FF00EBC00101EB001061688900CE
:10434000B0FBF1F0B0FBF5F006EB0016FDF7B4FFA3
:1043500000EBC00101EB001061688900B0FBF1F7D0
:10436000FDF7AAFFD2E0914201D081423DD1FDF795
:10437000A3FF00EBC00101EB001061684900B0FB36
:10438000F1F0B0FBF5F00601FDF796FF00EBC00180
:1043900001EB001061684900B0FBF1F7FDF78CFFFD
:1043A00000EBC00101EB001061684900B0FBF1F0C7
:1043B000B0FBF5F06FF01801484307EB800108EB04
:1043C000C100B0FBF5F000F0F80006EB4006FDF789
:1043D00073FF00EBC00101EB001061684900B0FB06
:1043E000F1F7FDF769FF3CE055E0FDF755FF00EB05
:1043F000C00101EB001061684900B0FBF1F0B0FBB7
:10440000F5F00601FDF748FF00EBC00101EB0010DD
:1044100061684900B0FBF1F7FDF73EFF00EBC0011A
:1044200001EB001061684900B0FBF1F0B0FBF5F062
:104430006FF01801484307EB800108EBC100B0FBA7
:10444000F5F000F0F80006EB4006FDF725FF00EB65
:10445000C00101EB001061684900B0FBF1F7FDF706
:104460001BFF00EBC00101EB001061684900B0FBCD
:10447000F1F0B0FBF5F06FF01801484307EB800155
:1044800008EBC100B0FBF5F000F0070021683044F4
:104490008860BDE8F081FDF7FFFE00EBC00101EB95
:1044A000001061688900B0FBF1F6FDF7F5FE00EB46
:1044B000C00101EB001061688900B0FBF1F0B0FBB6
:1044C000F5F06FF01801484306EB800108EB01108E
:1044D000B0FBF5F000F0F006FDF7DEFE00EBC001EA
:1044E00001EB001061688900B0FBF1F0B0FBF5F062
:1044F00006EB0016FDF7D0FE00EBC00101EB00104B
:1045000061688900B0FBF1F7FDF7C6FE00EBC00162
:1045100001EB001061688900B0FBF1F0B0FBF5F031
:104520006FF01801484307EB800108EB0110B0FB66
:10453000F5F000F00F00A9E7001401400010014061
:104540002DE9F041984617460E460446069D1DE0AB
:10455000681C1BD02DB1FCF7F5FFA0EB0800A842AA
:1045600014D92068C16821F4D071C1602068416904
:1045700021F001014161202084F8390084F83A00DB
:10458000002084F838000320BDE8F081206800682E
:1045900036EA000004D00020B842D9D00020F3E76A
:1045A0000120F9E7FEE700000FB4084B10B504A99D
:1045B00002AA039800F01CF8044602A9002000F0AB
:1045C000B8F9204610BC5DF814FB00003349000820
:1045D00002E008C8121F08C1002AFAD170477047CC
:1045E000002001E001C1121F002AFBD1704700002A
:1045F0002DE9FF4F8BB088460546002606E02528AA
:104600000BD0DDE90D1290476D1C761C2878002830
:10461000F5D10FB03046BDE8F08F0024A146A24688
:104620000122AE4900E0044315F8013F203B02FAA5
:1046300003F00842F7D128782A2810D06FF02F0213
:104640002878A0F13001092915D809EB890102EB7E
:10465000410144F0020400EB01096D1CF0E758F839
:10466000041B5FEA010903D544F40054C9F10009B1
:1046700044F002046D1C28782E2817D115F8010F7C
:1046800044F004042A280ED06FF02F022878A0F1FD
:10469000300109290AD80AEB8A0102EB410100EB3B
:1046A000010A6D1CF2E758F804AB6D1C28786C28E1
:1046B0000FD006DC4C2817D068280DD06A2814D1FA
:1046C00004E0742810D07A280FD10DE044F40014CF
:1046D0000AE044F4801401E044F440146978814213
:1046E00002D104F580146D1C6D1C2878692865D0F2
:1046F00006DC00288DD0632827D0642806D15DE031
:104700006E2808D073282AD0752877D0DDE90D12DD
:104710009047761CE0E0C4F30250022809D0032839
:104720000DD0D8F8001004280DD00E6008F1040850
:10473000D2E0D8F80010F217C1E90062F6E7D8F825
:1047400000100E80F2E70E70F0E718F8041B8DF8E9
:10475000001000208DF80100EB46012003E058F81E
:1047600004BB4FF0FF3061074FF0000701D40AE0AF
:104770007F1C57450DDA8742FADB1BF8071000292A
:10478000F6D106E07F1C8742FCDB1BF807100029EE
:10479000F8D1DDE90D23A9EB07008146214600F0A1
:1047A000B1F83044C61904E0DDE90D121BF8010B25
:1047B00090477F1EF8D22146484688E058F8040BFF
:1047C000C4F302514FF00A0B032900D100B20429AF
:1047D00000D140B2002802DA40422D2102E021053A
:1047E00005D52B218DF82410012104E006E0E10716
:1047F00010D02021F6E708AF089113E058F8040B19
:10480000C4F302514FF00A0B032900D180B20429EE
:1048100000D1C0B20021EEE75946FBF741FD30312F
:1048200007F8011D0028F7D1ADEB070000F1200BC0
:10483000600702D524F4803401E04FF0010ADA4524
:1048400002DDAAEB0B0000E00020824600EB0B012A
:1048500008980144A9EB01000A90E00306D4DDE9C1
:104860000D2321460A9800F04DF806444FF0000948
:1048700008E009A911F80900DDE90D12904709F1D6
:104880000109761C08998945F3DBE0030CD5DDE9C5
:104890000D2321460A9800F035F8064404E0DDE9CE
:1048A0000D1230209047761CBAF10001AAF1010ADE
:1048B000F5DC05E0DDE90D1217F8010B9047761CD9
:1048C000BBF10001ABF1010BF4DC0A982146DDE9F4
:1048D0000D2300F005F806446D1C97E60928010039
:1048E0002DE9F041044600251E461746880404D4ED
:1048F00005E039462020B0476D1C641EF9D52846D6
:10490000BDE8F0812DE9F041044600251E469046A1
:10491000C80301D5302700E02027880404D505E02E
:1049200041463846B0476D1C641EF9D52846BDE89F
:10493000F0810A68531C0B6010707047254810B551
:1049400090F8362010F8351F303901EB81036FF0F5
:104950002F0101EB430313441E4A5C321370C378EA
:104960000479303B03EB830301EB4303234453708F
:104970008379C479303B03EB830301EB4303234486
:104980009370437A847A303B03EB830301EB430358
:1049900023449375037B447B303B03EB830301EBA0
:1049A000430323445375037CC07B303800EB800005
:1049B00001EB40001844D0750649002270310648CA
:1049C000FDF7F8FE03490022BDE810405C310248C3
:1049D000FDF754BFBC030020DC050020F0B59BB000
:1049E0005C220D4903A8FBF72EFC002403AD4FF415
:1049F000FA7601272819CDE90007A2B20123A021E8
:104A000002960648FCF782FF0A20FCF77BFB641C39
:104A1000592CEFD31BB0F0BDBC030020E0040020F4
:104A200000B597B000F0DAF941F2883359226946AF
:104A30000848FEF76BFB08480DF13501FBF727FC32
:104A400005480DF13E010930FBF721FCFFF7C6FFD9
:104A500017B000BD54060020F103002000B597B048
:104A600000F0BCF941F28833592269460848FEF744
:104A70004DFB08480DF14701FBF709FC054814A957
:104A80000930FBF704FCFFF7A9FF17B000BD0000D9
:104A900054060020030400202820FEF769BF2920C7
:104AA000FEF766BF4FF4A0707047F020704710B556
:104AB000FEF7B8FECA20FEF75BFFC320FEF73CFFFF
:104AC0000820FEF739FF5020FEF736FFCF20FEF713
:104AD0004FFF0020FEF730FFC120FEF72DFF3020F2
:104AE000FEF72AFFED20FEF743FF6420FEF724FFC8
:104AF0000320FEF721FF1220FEF71EFF8120FEF7A4
:104B00001BFFE820FEF734FF8520FEF715FF00208D
:104B1000FEF712FF7820FEF70FFFCB20FEF728FFED
:104B20003920FEF709FF2C20FEF706FF0020FEF7D4
:104B300003FF3420FEF700FF0220FEF7FDFEF72002
:104B4000FEF716FF2020FEF7F7FEEA20FEF710FF23
:104B50000020FEF7F1FE0020FEF7EEFEB120FEF78A
:104B600007FF0020FEF7E8FE1B20FEF7E5FEB6205B
:104B7000FEF7FEFE0A20FEF7DFFEA220FEF7DCFEB7
:104B8000C020FEF7F5FE1020FEF7D6FEC120FEF78E
:104B9000EFFE1020FEF7D0FEC520FEF7E9FE45200F
:104BA000FEF7CAFE1520FEF7C7FEC720FEF7E0FE9F
:104BB0009020FEF7C1FE3620FEF7DAFEC820FEF791
:104BC000BBFEF220FEF7D4FE0020FEF7B5FEB020BB
:104BD000FEF7CEFEC220FEF7AFFEB620FEF7C8FEFF
:104BE0000A20FEF7A9FEA720FEF7A6FE2720FEF763
:104BF000A3FE0420FEF7A0FE2A20FEF7B9FE002047
:104C0000FEF79AFE0020FEF797FE0020FEF794FEC6
:104C1000EF20FEF791FE2B20FEF7AAFE0020FEF704
:104C20008BFE0020FEF788FE0120FEF785FE3F2068
:104C3000FEF782FEF620FEF79BFE0120FEF77CFECB
:104C40000020FEF779FE0620FEF776FE2C20FEF708
:104C50008FFEC820FEF7E4FD2620FEF789FE012026
:104C6000FEF76AFEE020FEF783FE0F20FEF764FEEB
:104C70002920FEF761FE2420FEF75EFE0C20FEF7E1
:104C80005BFE0E20FEF758FE0920FEF755FE4E2073
:104C9000FEF752FE7820FEF74FFE3C20FEF74CFE5A
:104CA0000920FEF749FE1320FEF746FE0520FEF719
:104CB00043FE1720FEF740FE1120FEF73DFE0020C8
:104CC000FEF73AFEE120FEF753FE0020FEF734FE29
:104CD0001620FEF731FE1B20FEF72EFE0420FEF705
:104CE0002BFE1120FEF728FE0720FEF725FE3120BF
:104CF000FEF722FE3320FEF71FFE4220FEF71CFEC9
:104D00000520FEF719FE0C20FEF716FE0A20FEF71E
:104D100013FE2820FEF710FE2F20FEF70DFE0F20B9
:104D2000FEF70AFE1120FEF723FEC820FEF778FDED
:104D30002920FEF71DFEBDE810402C20FEF718BE0E
:104D400010B5FEF76FFD0321D320FEF7BFFD80B243
:104D500010BD00001FB578208DF80C0001214FF424
:104D6000FA7203A88DE807000B460022A021034831
:104D7000FCF7CCFD0A20FCF7C5F91FBDE0040020BC
:104D800010B5FBF7BBFB4FF0504421460020FBF76A
:104D9000FFFB21460120FBF7FBFB0120FBF7CEFCCC
:104DA000FBF7FEFAA017FBF7C3FA0648FBF7DAFC9D
:104DB0000548FBF7C9FCBDE810404FF4A071F02096
:104DC000FBF70EBE0000FFFF280000200022134664
:104DD00001E08354521C8A42FBDB70470EB5064843
:104DE0004FF47A7259218DE8070001230022A12196
:104DF0000248FCF78DFC0EBDBC030020E00400203F
:104E000008B551481221002501701E21417085709E
:104E10004621C175012141758175A0F15C043630D0
:104E20006570A57025701E218146FFF7CFFF1E21FA
:104E300004F17400FFF7CAFFFCF774FEFFF7ACF94A
:104E4000FEF7B0FEFEF762FEFEF780FFFEF7ACFF56
:104E5000FFF756F8FEF77CFEFFF712F8FFF772F83F
:104E6000FFF78EFF002204F170013848FDF7A2FC25
:104E7000002235493548FDF701FD6E274FF47A7859
:104E800004F1170632A1E01CFBF701FA30A130460D
:104E9000FBF7FDF927704346012269462E48FEF7CD
:104EA00035F99DF800006C281DD165702BA1E01C20
:104EB000FBF7EDF924482BA13138FBF7E8F92BA1DA
:104EC0003046FBF7E4F92AA10720FBF7D5FA1E4983
:104ED0004FF4FA7359225C391F48FEF773F924A185
:104EE0000820FBF7C9FA621C24A14846FFF75CFBC7
:104EF00049460420FBF7C0FA6078682808D0632888
:104F00000AD06F280CD075280FD0612812D018E075
:104F10006570FFF713FD14E06570FFF75FFD10E0AB
:104F20006570FFF77DFD16A108E06570FFF796FD3F
:104F300018A103E06570FFF70DFF1AA11020FBF721
:104F40009BFA00F037F89DE718040020DC050020EC
:104F50006E6164610000000054060020726F64728C
:104F600069676F00616C67756D6100006173640053
:104F700055484453555341444600000025730000F2
:104F8000456E7472616461204C696265726164612E
:104F9000000000005361696461204C6962657261C0
:104FA000646100006461646F7320617061676164B3
:104FB0006F73000038B5002214491548FDF76CFBEB
:104FC0001249002214311248FDF744FB1148FBF747
:104FD000BBFB0E4C10A1A078009004F13600637862
:104FE00022780546FFF7E0FA29460120FBF744FA4C
:104FF000E07D0090637DA27D0BA12846FFF7D4FAE7
:105000002946BDE838400220FBF736BA18040020D4
:10501000DC05002028000020253032643A2530329B
:10502000643A253032640000253032642F25303256
:10503000642F2530326400000A46C0B20B21FEF70F
:10504000D7BB10B50446C0B20921FEF79FFB20F084
:105050000102E0B2BDE810400921FEF7C9BB70B5FE
:105060000D460446C0B20A21FEF790FB20EA050275
:10507000E0B2BDE870400A21FEF7BABB10B50446A5
:10508000C0B20921FEF782FB40F00102E0B2BDE8A8
:1050900010400921FEF7ACBB70B50D460446C0B206
:1050A0000A21FEF773FB40EA0502E0B2BDE870405A
:1050B0000A21FEF79DBB00000146054A0020135C53
:1050C0008B4204D0401CC0B20228F8D3FF207047A6
:1050D000A400002070B50D460446C0B21721FEF7AB
:1050E00055FB20EA0502E0B2BDE870401721FEF74B
:1050F0007FBB000010B50446FFF7DEFFFF280DD18F
:105100000020FFF7D9FF022808D205490C54FEF70A
:105110003BFB2046BDE8104000F014B810BD000075
:10512000A400002070B50446FEF72EFBE0B201217A
:10513000FEF72CFB0546E0B20021FEF727FB45EA0F
:10514000002070BD10B50446C0B202220321FEF754
:105150004FFB0A20FEF7EEFAE0B200220321FEF731
:1051600047FBBDE810400220FEF7E4BA1F21FFF71D
:1051700063BF70B504460025C0B24021FEF706FBB0
:10518000C009E0B205D04C21FEF700FB50B101256B
:1051900008E001224B21FEF72BFBE0B200224B215D
:1051A000FEF726FB284670BD10B50446FFF749FF01
:1051B0002046BDE810401F21FFF751BF10B504463F
:1051C000FEF7BAFA1F212046FFF766FF2046BDE82A
:1051D0001040FFF753BFF8B515460E460446C0B25F
:1051E00004236A46D721FEF7EBFA0098012203BA9E
:1051F0009DF803004B210343180D3080C3F30B20AF
:105200002880E0B2FEF7F4FAE0B200224B21FEF76C
:10521000EFFAF8BD10B5C0B20B21FEF7B7FA00F0F7
:105220001F0010BD70B50446C0B20421FEF7AEFAEF
:1052300020F00405E0B22A460421FEF7D9FAF02155
:105240002046FFF747FF25F00302E0B20421FEF7F6
:10525000CFFAE0B249222021FEF7CAFA0220FEF777
:1052600069FAE0B201222121FEF7C2FAE0B29A22E5
:105270004121FEF7BDFAE0B201224A21FEF7B8FA59
:10528000E0B201224B21FEF7B3FAE0B200224B213B
:10529000FEF7AEFAE0B201225621FEF7A9FAE0B21B
:1052A00001225821FEF7A4FAE0B201224021FEF7C4
:1052B0009FFAE0B2FF220B21FEF79AFABDE8704098
:1052C0000220FEF737BA00000000000000000000D6
:1052D00000000000000000000000000000000000CE
:1052E00000000000000000000000000000000000BE
:1052F00000000000000000000000000000000000AE
:10530000000000000000000000000000000000009D
:105310000000000003800003800003800003800081
:1053200003800003800003800003800003800001ED
:105330000000010000000000000000038000038066
:10534000000000000000000000000000000000005D
:105350000000000000000000000000000000000E3F
:1053600070000E70000E7000042000042000042065
:105370000004200000000000000000000000000009
:10538000000000000000000000000000000000001D
:10539000000000000000000000000000000000000D
:1053A0000000000006600006600006600006600065
:1053B0000660003FF8003FF8000660000CC0003FA8
:1053C000F8003FF8000CC0000CC0000CC0000CC07E
:1053D000000CC00000000000000000000000000001
:1053E00000000000000000000001800001800007B4
:1053F000B0000FF0001870001870001C00000F8043
:105400000007E00000F0001830001C30001C7000A5
:105410001FE0001BC000018000018000018000012E
:1054200080000000000000000000000000000000FC
:10543000000000000780000FC0001CE000186000A2
:105440001860001CE0000FF80007E0001FF00007E4
:10545000380006180006180007380003F00001E0C5
:10546000000000000000000000000000000000003C
:10547000000000000000000000000000000000002C
:10548000000003F00007F0000C60000C00000C00AE
:10549000000600000700000F9C001DFC0018F00033
:1054A0001870000FFC0007DC000000000000000086
:1054B00000000000000000000000000000000000EC
:1054C0000000000000000003800003800003800053
:1054D00001000001000001000001000000000000C8
:1054E00000000000000000000000000000000000BC
:1054F00000000000000000000000000000000000AC
:105500000000000000000000000000000018000083
:10551000380000700000F00000E00000E00001C072
:105520000001C00001C00001C00001C00001C000B6
:1055300000E00000E0000070000070000038000093
:105540001800000000000000000000000000000043
:10555000000000001800001C00000E00000E0000FB
:1055600007000007000003800003800003800003A1
:1055700080000380000380000700000700000F0088
:10558000000E00001C0000180000000000000000D9
:105590000000000000000000000000000180000189
:1055A00080000180001DB8001FF80007E00003C064
:1055B0000003C0000660000660000000000000005C
:1055C00000000000000000000000000000000000DB
:1055D00000000000000000000000000000000000CB
:1055E00000000000000000000000018000018000B9
:1055F0000180000180000180003FFC003FFC0001B1
:105600008000018000018000018000018000000016
:10561000000000000000000000000000000000008A
:10562000000000000000000000000000000000007A
:10563000000000000000000000000000000000006A
:10564000000000000000000000000000000000005A
:1056500000E00000C00001C00001800001800003E4
:105660000000030000000000000000000000000037
:10567000000000000000000000000000000000002A
:105680000000000000000000001FF8001FF80000EC
:10569000000000000000000000000000000000000A
:1056A00000000000000000000000000000000000FA
:1056B00000000000000000000000000000000000EA
:1056C00000000000000000000000000000000000DA
:1056D00000000000000000000000000000000000CA
:1056E00003C00003C00003C0000000000000000071
:1056F0000000000000000000000000000000001892
:105700000000180000380000300000700000600049
:1057100000600000C00000C00001800001800003A4
:1057200000000300000600000600000E00000C0050
:10573000001C00001800001800000000000000001D
:1057400000000000000000000000000003C000078F
:10575000E0000C30000C3000181800181800181861
:10576000001818001818001818001818000C30003D
:105770000C300007E00003C0000000000000000043
:105780000000000000000000000000000000000019
:10579000000000000080000780001F80001D8000C6
:1057A0000180000180000180000180000180000173
:1057B00080000180000180000180001FF8001FF8B8
:1057C00000000000000000000000000000000000D9
:1057D00000000000000000000000000007C0001FE3
:1057E000F000383000301800301800001800003089
:1057F0000000600001C0000380000600000C0000F3
:105800001800003FF8003FF8000000000000000012
:105810000000000000000000000000000000000088
:105820000000000003C0000FE0000C70000030001A
:1058300000300000600003C00003E00000700000C2
:1058400018000018000018001838001FF0000FC0E2
:105850000000000000000000000000000000000048
:1058600000000000000000000000000000E0000157
:10587000E00001E0000360000660000660000C60CC
:10588000000C60001860003060003FF8003FF80036
:1058900000600003F80003F80000000000000000B2
:1058A00000000000000000000000000000000000F8
:1058B000000000001FF0001FF0001800001800009A
:1058C0001800001BC0001FF0001C30000018000072
:1058D00018000018000018003030003FF0000FC022
:1058E00000000000000000000000000000000000B8
:1058F00000000000000000000000000000F80003AD
:10590000F8000700000E00000C00001800001BC08B
:10591000001FF0001C30001818001818001818009C
:105920000C38000FF00003E0000000000000000051
:105930000000000000000000000000000000000067
:10594000000000001FF8001FF800181800183800A9
:1059500000300000300000700000600000600000B7
:10596000E00000C00000C00001C000018000018014
:105970000000000000000000000000000000000027
:1059800000000000000000000000000007E0000F21
:10599000F0001C38001818001818000C300007E040
:1059A0000007E0000C300018180018180018180044
:1059B0001C38000FF00007E00000000000000000AD
:1059C00000000000000000000000000000000000D7
:1059D0000000000007C0000FF0001C300018180085
:1059E0001818001818000C38000FF80003D8000031
:1059F000180000300000700000E0001FC0001F0011
:105A00000000000000000000000000000000000096
:105A10000000000000000000000000000000000086
:105A2000000000000000000003C00003C00003C02D
:105A30000000000000000000000000000000000066
:105A400003C00003C00003C000000000000000000D
:105A50000000000000000000000000000000000046
:105A60000000000000000000000000000000000036
:105A700000F00000F00000F0000000000000000056
:105A8000000000000000E00001C000018000018073
:105A90000003000002000000000000000000000001
:105AA00000000000000000000000000000000000F6
:105AB0000000001C00003C0000F00003C0000F00CC
:105AC000003C0000F000003C00000F000003C0009C
:105AD00000F000003C00001C00000000000000007E
